{
  "transactions": [
    {
      "hash": "0x48c9ea4fc5c75fc9e2b14fd1e34938e4bbdd33dbf4ad6e454e71d9d3fc85b4eb",
      "transactionType": "CALL",
      "contractName": null,
      "contractAddress": "0xd782a3f67dc7d870ab8bb368fc429dc0bcbd4935",
      "function": "createMarket(string,uint256,uint256)",
      "arguments": [
        "ETH/BTC Ratio > 0.05 by June 2026?",
        "2",
        "1000"
      ],
      "transaction": {
        "from": "0xd7a9788d08140237abbc482bf7981647eb0419a1",
        "to": "0xd782a3f67dc7d870ab8bb368fc429dc0bcbd4935",
        "gas": "0x6e820",
        "value": "0x2386f26fc10000",
        "input": "0xcfa51b160000000000000000000000000000000000000000000000000000000000000060000000000000000000000000000000000000000000000000000000000000000200000000000000000000000000000000000000000000000000000000000003e800000000000000000000000000000000000000000000000000000000000000224554482f42544320526174696f203e20302e3035206279204a756e6520323032363f000000000000000000000000000000000000000000000000000000000000",
        "nonce": "0xd",
        "chainId": "0xaa36a7"
      },
      "additionalContracts": [],
      "isFixedGasLimit": false
    },
    {
      "hash": "0x729c301d2c26de79b1669acdb13c019d8aaae3a7e666cbb40904d1715355e799",
      "transactionType": "CALL",
      "contractName": null,
      "contractAddress": "0xd782a3f67dc7d870ab8bb368fc429dc0bcbd4935",
      "function": "createMarket(string,uint256,uint256)",
      "arguments": [
        "Ethereum L2 TVL > $100B by Q3 2026?",
        "2",
        "2000"
      ],
      "transaction": {
        "from": "0xd7a9788d08140237abbc482bf7981647eb0419a1",
        "to": "0xd782a3f67dc7d870ab8bb368fc429dc0bcbd4935",
        "gas": "0x685f6",
        "value": "0x2386f26fc10000",
        "input": "0xcfa51b160000000000000000000000000000000000000000000000000000000000000060000000000000000000000000000000000000000000000000000000000000000200000000000000000000000000000000000000000000000000000000000007d00000000000000000000000000000000000000000000000000000000000000023457468657265756d204c322054564c203e20243130304220627920513320323032363f0000000000000000000000000000000000000000000000000000000000",
        "nonce": "0xe",
        "chainId": "0xaa36a7"
      },
      "additionalContracts": [],
      "isFixedGasLimit": false
    },
    {
      "hash": "0x5d9381a395fa7ea806e091e6d8ddb1a130305916059c4e913c48dd1150cb20b7",
      "transactionType": "CALL",
      "contractName": null,
      "contractAddress": "0xd782a3f67dc7d870ab8bb368fc429dc0bcbd4935",
      "function": "createMarket(string,uint256,uint256)",
      "arguments": [
        "Bitcoin All-Time High Before July 2026?",
        "2",
        "5000"
      ],
      "transaction": {
        "from": "0xd7a9788d08140237abbc482bf7981647eb0419a1",
        "to": "0xd782a3f67dc7d870ab8bb368fc429dc0bcbd4935",
        "gas": "0x68638",
        "value": "0x2386f26fc10000",
        "input": "0xcfa51b160000000000000000000000000000000000000000000000000000000000000060000000000000000000000000000000000000000000000000000000000000000200000000000000000000000000000000000000000000000000000000000013880000000000000000000000000000000000000000000000000000000000000027426974636f696e20416c6c2d54696d652048696768204265666f7265204a756c7920323032363f00000000000000000000000000000000000000000000000000",
        "nonce": "0xf",
        "chainId": "0xaa36a7"
      },
      "additionalContracts": [],
      "isFixedGasLimit": false
    },
    {
      "hash": "0xe57912b3c49c57b355a750bab2eee09b661bbe4bba297409b6bf5f805dd9d424",
      "transactionType": "CALL",
      "contractName": null,
      "contractAddress": "0xd782a3f67dc7d870ab8bb368fc429dc0bcbd4935",
      "function": "createMarket(string,uint256,uint256)",
      "arguments": [
        "Fed Cuts Rate in June 2026?",
        "3",
        "3000"
      ],
      "transaction": {
        "from": "0xd7a9788d08140237abbc482bf7981647eb0419a1",
        "to": "0xd782a3f67dc7d870ab8bb368fc429dc0bcbd4935",
        "gas": "0x61a6e",
        "value": "0x2386f26fc10000",
        "input": "0xcfa51b16000000000000000000000000000000000000000000000000000000000000006000000000000000000000000000000000000000000000000000000000000000030000000000000000000000000000000000000000000000000000000000000bb8000000000000000000000000000000000000000000000000000000000000001b4665642043757473205261746520696e204a756e6520323032363f0000000000",
        "nonce": "0x10",
        "chainId": "0xaa36a7"
      },
      "additionalContracts": [],
      "isFixedGasLimit": false
    },
    {
      "hash": "0x2487b168c8fea108a790b898f29b371319b2db08f6166e8728825c8c4676fd33",
      "transactionType": "CALL",
      "contractName": null,
      "contractAddress": "0xd782a3f67dc7d870ab8bb368fc429dc0bcbd4935",
      "function": "createMarket(string,uint256,uint256)",
      "arguments": [
        "Chainlink CCIP Cross-Chain Volume > $50B?",
        "2",
        "800"
      ],
      "transaction": {
        "from": "0xd7a9788d08140237abbc482bf7981647eb0419a1",
        "to": "0xd782a3f67dc7d870ab8bb368fc429dc0bcbd4935",
        "gas": "0x68659",
        "value": "0x2386f26fc10000",
        "input": "0xcfa51b160000000000000000000000000000000000000000000000000000000000000060000000000000000000000000000000000000000000000000000000000000000200000000000000000000000000000000000000000000000000000000000003200000000000000000000000000000000000000000000000000000000000000029436861696e6c696e6b20434349502043726f73732d436861696e20566f6c756d65203e20243530423f0000000000000000000000000000000000000000000000",
        "nonce": "0x11",
        "chainId": "0xaa36a7"
      },
      "additionalContracts": [],
      "isFixedGasLimit": false
    },
    {
      "hash": "0x674749fc23effb55f0dd7bacb345c48ae197f0b9913b8136c1df3fbbc659e3ee",
      "transactionType": "CALL",
      "contractName": null,
      "contractAddress": "0xd782a3f67dc7d870ab8bb368fc429dc0bcbd4935",
      "function": "createMarket(string,uint256,uint256)",
      "arguments": [
        "Vietnam National Football - SEA Games Gold?",
        "2",
        "1500"
      ],
      "transaction": {
        "from": "0xd7a9788d08140237abbc482bf7981647eb0419a1",
        "to": "0xd782a3f67dc7d870ab8bb368fc429dc0bcbd4935",
        "gas": "0x6867a",
        "value": "0x2386f26fc10000",
        "input": "0xcfa51b160000000000000000000000000000000000000000000000000000000000000060000000000000000000000000000000000000000000000000000000000000000200000000000000000000000000000000000000000000000000000000000005dc000000000000000000000000000000000000000000000000000000000000002b566965746e616d204e6174696f6e616c20466f6f7462616c6c202d205345412047616d657320476f6c643f000000000000000000000000000000000000000000",
        "nonce": "0x12",
        "chainId": "0xaa36a7"
      },
      "additionalContracts": [],
      "isFixedGasLimit": false
    }
  ],
  "receipts": [
    {
      "status": "0x1",
      "cumulativeGasUsed": "0x632cfb",
      "logs": [
        {
          "address": "0xd782a3f67dc7d870ab8bb368fc429dc0bcbd4935",
          "topics": [
            "0x28c8de42a10b7bcc4a65ea3618bc8ada3e24cd7394886eae1b4f5f7440477080",
            "0x0000000000000000000000000000000000000000000000000000000000000001",
            "0x000000000000000000000000d7a9788d08140237abbc482bf7981647eb0419a1"
          ],
          "data": "0x000000000000000000000000000000000000000000000000000000000000000200000000000000000000000000000000000000000000000000000000000003e8",
          "blockHash": "0xf4b5110b1cff77ce271b6b98f19e8eab441ba6c468bc0d3c54d23b35a5dbf5fd",
          "blockNumber": "0x9ed671",
          "blockTimestamp": "0x69ada018",
          "transactionHash": "0x48c9ea4fc5c75fc9e2b14fd1e34938e4bbdd33dbf4ad6e454e71d9d3fc85b4eb",
          "transactionIndex": "0x3b",
          "logIndex": "0x66",
          "removed": false
        }
      ],
      "logsBloom": "0x00000000000000000000000000000000000000000000000000000000000000000000000000000000020000000000000000000000000000000000000000040000000000000000000000000000000200000000000000040000000000000000000000000000000000000000000000000000200000800000000000000000000000000000000000000000000000000000000000001002000000000000000000000000000000000000000000000000000000000000000000000000000000000000000000000000000000000000000000001000000000000000000000000000000040000000000000000000000000800000000000000000000000000000000000000000",
      "type": "0x2",
      "transactionHash": "0x48c9ea4fc5c75fc9e2b14fd1e34938e4bbdd33dbf4ad6e454e71d9d3fc85b4eb",
      "transactionIndex": "0x3b",
      "blockHash": "0xf4b5110b1cff77ce271b6b98f19e8eab441ba6c468bc0d3c54d23b35a5dbf5fd",
      "blockNumber": "0x9ed671",
      "gasUsed": "0x4b8fa",
      "effectiveGasPrice": "0x147372",
      "from": "0xd7a9788d08140237abbc482bf7981647eb0419a1",
      "to": "0xd782a3f67dc7d870ab8bb368fc429dc0bcbd4935",
      "contractAddress": null
    },
    {
      "status": "0x1",
      "cumulativeGasUsed": "0x80f546",
      "logs": [
        {
          "address": "0xd782a3f67dc7d870ab8bb368fc429dc0bcbd4935",
          "topics": [
            "0x28c8de42a10b7bcc4a65ea3618bc8ada3e24cd7394886eae1b4f5f7440477080",
            "0x0000000000000000000000000000000000000000000000000000000000000002",
            "0x000000000000000000000000d7a9788d08140237abbc482bf7981647eb0419a1"
          ],
          "data": "0x000000000000000000000000000000000000000000000000000000000000000200000000000000000000000000000000000000000000000000000000000007d0",
          "blockHash": "0xf4b5110b1cff77ce271b6b98f19e8eab441ba6c468bc0d3c54d23b35a5dbf5fd",
          "blockNumber": "0x9ed671",
          "blockTimestamp": "0x69ada018",
          "transactionHash": "0x2487b168c8fea108a790b898f29b371319b2db08f6166e8728825c8c4676fd33",
          "transactionIndex": "0x3d",
          "logIndex": "0x67",
          "removed": false
        }
      ],
      "logsBloom": "0x04000000000000000000000000000000000000000000000000000000000000000000000000000000020000000000000000000000000000000000000000000000000000000000000000000000000200000000000000000000000000000000000000000000000000000000000000000000200000800000000000000000000000000000000000000000000000000000000000001002000000000000000000000000000000000000000000000100000000000000000000000000000000000000000000000000000000000000000000001000000000000000000000000000000000000000000000000000000000800000000000000000008000000000000000000000",
      "type": "0x2",
      "transactionHash": "0x2487b168c8fea108a790b898f29b371319b2db08f6166e8728825c8c4676fd33",
      "transactionIndex": "0x3d",
      "blockHash": "0xf4b5110b1cff77ce271b6b98f19e8eab441ba6c468bc0d3c54d23b35a5dbf5fd",
      "blockNumber": "0x9ed671",
      "gasUsed": "0x4b906",
      "effectiveGasPrice": "0x147372",
      "from": "0xd7a9788d08140237abbc482bf7981647eb0419a1",
      "to": "0xd782a3f67dc7d870ab8bb368fc429dc0bcbd4935",
      "contractAddress": null
    },
    {
      "status": "0x1",
      "cumulativeGasUsed": "0x85ae7c",
      "logs": [
        {
          "address": "0xd782a3f67dc7d870ab8bb368fc429dc0bcbd4935",
          "topics": [
            "0x28c8de42a10b7bcc4a65ea3618bc8ada3e24cd7394886eae1b4f5f7440477080",
            "0x0000000000000000000000000000000000000000000000000000000000000003",
            "0x000000000000000000000000d7a9788d08140237abbc482bf7981647eb0419a1"
          ],
          "data": "0x00000000000000000000000000000000000000000000000000000000000000020000000000000000000000000000000000000000000000000000000000001388",
          "blockHash": "0xf4b5110b1cff77ce271b6b98f19e8eab441ba6c468bc0d3c54d23b35a5dbf5fd",
          "blockNumber": "0x9ed671",
          "blockTimestamp": "0x69ada018",
          "transactionHash": "0x674749fc23effb55f0dd7bacb345c48ae197f0b9913b8136c1df3fbbc659e3ee",
          "transactionIndex": "0x3e",
          "logIndex": "0x68",
          "removed": false
        }
      ],
      "logsBloom": "0x00000000000000000000000000000000000000000000000000000000000000000000000000000000020000000000000000000000020000000000000000000000000000000000000000000000000200000000000000000000000000000000000000000000000000000000000000000000200000800000000000000000000000000000000000000000000000000000000000001002000000000000000000000000000000000000000000000000000000000000000000800000000000000000400000000000000000000000000000001000000000000000000000000000000000000000000000000000000000800000000000000000000000000000000000000000",
      "type": "0x2",
      "transactionHash": "0x674749fc23effb55f0dd7bacb345c48ae197f0b9913b8136c1df3fbbc659e3ee",
      "transactionIndex": "0x3e",
      "blockHash": "0xf4b5110b1cff77ce271b6b98f19e8eab441ba6c468bc0d3c54d23b35a5dbf5fd",
      "blockNumber": "0x9ed671",
      "gasUsed": "0x4b936",
      "effectiveGasPrice": "0x147372",
      "from": "0xd7a9788d08140237abbc482bf7981647eb0419a1",
      "to": "0xd782a3f67dc7d870ab8bb368fc429dc0bcbd4935",
      "contractAddress": null
    },
    {
      "status": "0x1",
      "cumulativeGasUsed": "0x8a19a9",
      "logs": [
        {
          "address": "0xd782a3f67dc7d870ab8bb368fc429dc0bcbd4935",
          "topics": [
            "0x28c8de42a10b7bcc4a65ea3618bc8ada3e24cd7394886eae1b4f5f7440477080",
            "0x0000000000000000000000000000000000000000000000000000000000000004",
            "0x000000000000000000000000d7a9788d08140237abbc482bf7981647eb0419a1"
          ],
          "data": "0x00000000000000000000000000000000000000000000000000000000000000030000000000000000000000000000000000000000000000000000000000000bb8",
          "blockHash": "0xf4b5110b1cff77ce271b6b98f19e8eab441ba6c468bc0d3c54d23b35a5dbf5fd",
          "blockNumber": "0x9ed671",
          "blockTimestamp": "0x69ada018",
          "transactionHash": "0xe57912b3c49c57b355a750bab2eee09b661bbe4bba297409b6bf5f805dd9d424",
          "transactionIndex": "0x3f",
          "logIndex": "0x69",
          "removed": false
        }
      ],
      "logsBloom": "0x00000000000000000000000000000000000000000000000000000000000000000000000000000000020000000000000000000000000000000000000000000000000000000000000000000000000200000000000000000000000000000000000008000000000000000000000000000000200000800000000000000000000000000000000000000000000000000000000000001002000000000000000000000000000000000000000000000000000000000000000000000000002000000000000000000000000000000000000000001000000000008000000000000000000000000000000000000000000000800000000000000000000000000000000000000000",
      "type": "0x2",
      "transactionHash": "0xe57912b3c49c57b355a750bab2eee09b661bbe4bba297409b6bf5f805dd9d424",
      "transactionIndex": "0x3f",
      "blockHash": "0xf4b5110b1cff77ce271b6b98f19e8eab441ba6c468bc0d3c54d23b35a5dbf5fd",
      "blockNumber": "0x9ed671",
      "gasUsed": "0x46b2d",
      "effectiveGasPrice": "0x147372",
      "from": "0xd7a9788d08140237abbc482bf7981647eb0419a1",
      "to": "0xd782a3f67dc7d870ab8bb368fc429dc0bcbd4935",
      "contractAddress": null
    },
    {
      "status": "0x1",
      "cumulativeGasUsed": "0x8ed2f7",
      "logs": [
        {
          "address": "0xd782a3f67dc7d870ab8bb368fc429dc0bcbd4935",
          "topics": [
            "0x28c8de42a10b7bcc4a65ea3618bc8ada3e24cd7394886eae1b4f5f7440477080",
            "0x0000000000000000000000000000000000000000000000000000000000000005",
            "0x000000000000000000000000d7a9788d08140237abbc482bf7981647eb0419a1"
          ],
          "data": "0x00000000000000000000000000000000000000000000000000000000000000020000000000000000000000000000000000000000000000000000000000000320",
          "blockHash": "0xf4b5110b1cff77ce271b6b98f19e8eab441ba6c468bc0d3c54d23b35a5dbf5fd",
          "blockNumber": "0x9ed671",
          "blockTimestamp": "0x69ada018",
          "transactionHash": "0x729c301d2c26de79b1669acdb13c019d8aaae3a7e666cbb40904d1715355e799",
          "transactionIndex": "0x40",
          "logIndex": "0x6a",
          "removed": false
        }
      ],
      "logsBloom": "0x00000000000000000000000000000000000000000000000000000000000000000000000000000000020000000000000000000000000000000000000000000000000010000000000000000000000200000000000000000000000000000000000000000000000000000000000000000000200000800000000000000000000000000000000000000000000000000000001000001802000000000000000000000000000000000000000000000000000000000000000000000000000000000000000000000000000000000000000000001000000000000000000000000000000000000000000000000000000000800000000000000000000000000000000000000000",
      "type": "0x2",
      "transactionHash": "0x729c301d2c26de79b1669acdb13c019d8aaae3a7e666cbb40904d1715355e799",
      "transactionIndex": "0x40",
      "blockHash": "0xf4b5110b1cff77ce271b6b98f19e8eab441ba6c468bc0d3c54d23b35a5dbf5fd",
      "blockNumber": "0x9ed671",
      "gasUsed": "0x4b94e",
      "effectiveGasPrice": "0x147372",
      "from": "0xd7a9788d08140237abbc482bf7981647eb0419a1",
      "to": "0xd782a3f67dc7d870ab8bb368fc429dc0bcbd4935",
      "contractAddress": null
    },
    {
      "status": "0x1",
      "cumulativeGasUsed": "0x938c5d",
      "logs": [
        {
          "address": "0xd782a3f67dc7d870ab8bb368fc429dc0bcbd4935",
          "topics": [
            "0x28c8de42a10b7bcc4a65ea3618bc8ada3e24cd7394886eae1b4f5f7440477080",
            "0x0000000000000000000000000000000000000000000000000000000000000006",
            "0x000000000000000000000000d7a9788d08140237abbc482bf7981647eb0419a1"
          ],
          "data": "0x000000000000000000000000000000000000000000000000000000000000000200000000000000000000000000000000000000000000000000000000000005dc",
          "blockHash": "0xf4b5110b1cff77ce271b6b98f19e8eab441ba6c468bc0d3c54d23b35a5dbf5fd",
          "blockNumber": "0x9ed671",
          "blockTimestamp": "0x69ada018",
          "transactionHash": "0x5d9381a395fa7ea806e091e6d8ddb1a130305916059c4e913c48dd1150cb20b7",
          "transactionIndex": "0x41",
          "logIndex": "0x6b",
          "removed": false
        }
      ],
      "logsBloom": "0x00000000000000000000000000000000000000000000000000000000000000000000000000000000020000000000000000000000000400000000000000000000000000000000000000000000000200000000000000000000000000000000000000000000000000000000000000000000200000800000000000000000000000000000000400000000000000000000000000001002000000000000000000000000000000000000000000000000000000000000000000000000000000080000000000000000000000000000000000001000000000000000000000000000000000000000000000000000000000800000000000000000000000000000000000000000",
      "type": "0x2",
      "transactionHash": "0x5d9381a395fa7ea806e091e6d8ddb1a130305916059c4e913c48dd1150cb20b7",
      "transactionIndex": "0x41",
      "blockHash": "0xf4b5110b1cff77ce271b6b98f19e8eab441ba6c468bc0d3c54d23b35a5dbf5fd",
      "blockNumber": "0x9ed671",
      "gasUsed": "0x4b966",
      "effectiveGasPrice": "0x147372",
      "from": "0xd7a9788d08140237abbc482bf7981647eb0419a1",
      "to": "0xd782a3f67dc7d870ab8bb368fc429dc0bcbd4935",
      "contractAddress": null
    }
  ],
  "libraries": [],
  "pending": [],
  "returns": {},
  "timestamp": 1772986393795,
  "chain": 11155111,
  "commit": null
}